{
  "contractName": "Marketplace",
  "abi": [
    {
      "inputs": [],
      "stateMutability": "nonpayable",
      "type": "constructor"
    },
    {
      "anonymous": false,
      "inputs": [
        {
          "indexed": false,
          "internalType": "address",
          "name": "nftContract",
          "type": "address"
        },
        {
          "indexed": false,
          "internalType": "uint256",
          "name": "tokenId",
          "type": "uint256"
        },
        {
          "indexed": false,
          "internalType": "address",
          "name": "seller",
          "type": "address"
        },
        {
          "indexed": false,
          "internalType": "address",
          "name": "owner",
          "type": "address"
        },
        {
          "indexed": false,
          "internalType": "uint256",
          "name": "voteCount",
          "type": "uint256"
        }
      ],
      "name": "NFTListed",
      "type": "event"
    },
    {
      "inputs": [],
      "name": "LISTING_FEE",
      "outputs": [
        {
          "internalType": "uint256",
          "name": "",
          "type": "uint256"
        }
      ],
      "stateMutability": "view",
      "type": "function",
      "constant": true
    },
    {
      "inputs": [],
      "name": "currentTime",
      "outputs": [
        {
          "internalType": "uint256",
          "name": "",
          "type": "uint256"
        }
      ],
      "stateMutability": "view",
      "type": "function",
      "constant": true
    },
    {
      "inputs": [],
      "name": "prompt",
      "outputs": [
        {
          "internalType": "string",
          "name": "",
          "type": "string"
        }
      ],
      "stateMutability": "view",
      "type": "function",
      "constant": true
    },
    {
      "inputs": [],
      "name": "time",
      "outputs": [
        {
          "internalType": "uint256",
          "name": "",
          "type": "uint256"
        }
      ],
      "stateMutability": "view",
      "type": "function",
      "constant": true
    },
    {
      "inputs": [
        {
          "internalType": "uint256",
          "name": "_tokenId",
          "type": "uint256"
        }
      ],
      "name": "voteNFT",
      "outputs": [],
      "stateMutability": "payable",
      "type": "function",
      "payable": true
    },
    {
      "inputs": [
        {
          "internalType": "uint256",
          "name": "_tokenId",
          "type": "uint256"
        }
      ],
      "name": "getVoteCount",
      "outputs": [
        {
          "internalType": "uint256",
          "name": "",
          "type": "uint256"
        }
      ],
      "stateMutability": "view",
      "type": "function",
      "constant": true
    },
    {
      "inputs": [],
      "name": "getPrompt",
      "outputs": [
        {
          "internalType": "string",
          "name": "",
          "type": "string"
        }
      ],
      "stateMutability": "view",
      "type": "function",
      "constant": true
    },
    {
      "inputs": [],
      "name": "getTimeLeft",
      "outputs": [
        {
          "internalType": "uint256",
          "name": "",
          "type": "uint256"
        }
      ],
      "stateMutability": "view",
      "type": "function",
      "constant": true
    },
    {
      "inputs": [
        {
          "internalType": "address",
          "name": "_nftContract",
          "type": "address"
        },
        {
          "internalType": "uint256",
          "name": "_tokenId",
          "type": "uint256"
        }
      ],
      "name": "listNft",
      "outputs": [],
      "stateMutability": "payable",
      "type": "function",
      "payable": true
    }
  ],
  "bytecode": "0x6080604052655af3107a40006003556040518060400160405280601181526020017f6f75746572737061636520636f77626f790000000000000000000000000000008152506006908162000054919062000337565b5062015180600755426008553480156200006d57600080fd5b50600160008190555033600460006101000a81548173ffffffffffffffffffffffffffffffffffffffff021916908373ffffffffffffffffffffffffffffffffffffffff1602179055506200041e565b600081519050919050565b7f4e487b7100000000000000000000000000000000000000000000000000000000600052604160045260246000fd5b7f4e487b7100000000000000000000000000000000000000000000000000000000600052602260045260246000fd5b600060028204905060018216806200013f57607f821691505b602082108103620001555762000154620000f7565b5b50919050565b60008190508160005260206000209050919050565b60006020601f8301049050919050565b600082821b905092915050565b600060088302620001bf7fffffffffffffffffffffffffffffffffffffffffffffffffffffffffffffffff8262000180565b620001cb868362000180565b95508019841693508086168417925050509392505050565b6000819050919050565b6000819050919050565b600062000218620002126200020c84620001e3565b620001ed565b620001e3565b9050919050565b6000819050919050565b6200023483620001f7565b6200024c62000243826200021f565b8484546200018d565b825550505050565b600090565b6200026362000254565b6200027081848462000229565b505050565b5b8181101562000298576200028c60008262000259565b60018101905062000276565b5050565b601f821115620002e757620002b1816200015b565b620002bc8462000170565b81016020851015620002cc578190505b620002e4620002db8562000170565b83018262000275565b50505b505050565b600082821c905092915050565b60006200030c60001984600802620002ec565b1980831691505092915050565b6000620003278383620002f9565b9150826002028217905092915050565b6200034282620000bd565b67ffffffffffffffff8111156200035e576200035d620000c8565b5b6200036a825462000126565b620003778282856200029c565b600060209050601f831160018114620003af57600084156200039a578287015190505b620003a6858262000319565b86555062000416565b601f198416620003bf866200015b565b60005b82811015620003e957848901518255600182019150602085019450602081019050620003c2565b8683101562000409578489015162000405601f891682620002f9565b8355505b6001600288020188555050505b505050505050565b610c4b806200042e6000396000f3fe6080604052600436106100865760003560e01c80637c65d711116100595780637c65d71114610119578063b2c2f2e814610144578063c7e284b814610181578063d18e81b3146101ac578063fc5be82f146101d757610086565b806316ada5471461008b578063192027eb146100b65780632b86ae38146100d25780632fbc86d4146100fd575b600080fd5b34801561009757600080fd5b506100a0610202565b6040516100ad919061071f565b60405180910390f35b6100d060048036038101906100cb91906107c9565b610208565b005b3480156100de57600080fd5b506100e76104f5565b6040516100f4919061071f565b60405180910390f35b61011760048036038101906101129190610809565b6104fb565b005b34801561012557600080fd5b5061012e61052a565b60405161013b91906108c6565b60405180910390f35b34801561015057600080fd5b5061016b60048036038101906101669190610809565b6105b8565b604051610178919061071f565b60405180910390f35b34801561018d57600080fd5b506101966105d8565b6040516101a3919061071f565b60405180910390f35b3480156101b857600080fd5b506101c16105ff565b6040516101ce919061071f565b60405180910390f35b3480156101e357600080fd5b506101ec610605565b6040516101f991906108c6565b60405180910390f35b60075481565b610210610697565b6003543414610254576040517f08c379a000000000000000000000000000000000000000000000000000000000815260040161024b90610934565b60405180910390fd5b600061025e6105d8565b1161029e576040517f08c379a0000000000000000000000000000000000000000000000000000000008152600401610295906109a0565b60405180910390fd5b8173ffffffffffffffffffffffffffffffffffffffff166323b872dd3330846040518463ffffffff1660e01b81526004016102db939291906109cf565b600060405180830381600087803b1580156102f557600080fd5b505af1158015610309573d6000803e3d6000fd5b5050505061031760026106e6565b6040518060c001604052808373ffffffffffffffffffffffffffffffffffffffff1681526020018281526020013373ffffffffffffffffffffffffffffffffffffffff1681526020013073ffffffffffffffffffffffffffffffffffffffff16815260200160011515815260200160008152506005600083815260200190815260200160002060008201518160000160006101000a81548173ffffffffffffffffffffffffffffffffffffffff021916908373ffffffffffffffffffffffffffffffffffffffff1602179055506020820151816001015560408201518160020160006101000a81548173ffffffffffffffffffffffffffffffffffffffff021916908373ffffffffffffffffffffffffffffffffffffffff16021790555060608201518160030160006101000a81548173ffffffffffffffffffffffffffffffffffffffff021916908373ffffffffffffffffffffffffffffffffffffffff16021790555060808201518160030160146101000a81548160ff02191690831515021790555060a082015181600401559050507fa0c6c0d02d86fdacecbaa5fdf5894bab204e31a778250474108540733a9b8d198282333060006040516104e1959493929190610a4b565b60405180910390a16104f16106fc565b5050565b60035481565b60056000828152602001908152602001600020600401600081548092919061052290610acd565b919050555050565b6006805461053790610b44565b80601f016020809104026020016040519081016040528092919081815260200182805461056390610b44565b80156105b05780601f10610585576101008083540402835291602001916105b0565b820191906000526020600020905b81548152906001019060200180831161059357829003601f168201915b505050505081565b600060056000838152602001908152602001600020600401549050919050565b600080600854426105e99190610b75565b6007546105f69190610b75565b90508091505090565b60085481565b60606006805461061490610b44565b80601f016020809104026020016040519081016040528092919081815260200182805461064090610b44565b801561068d5780601f106106625761010080835404028352916020019161068d565b820191906000526020600020905b81548152906001019060200180831161067057829003601f168201915b5050505050905090565b6002600054036106dc576040517f08c379a00000000000000000000000000000000000000000000000000000000081526004016106d390610bf5565b60405180910390fd5b6002600081905550565b6001816000016000828254019250508190555050565b6001600081905550565b6000819050919050565b61071981610706565b82525050565b60006020820190506107346000830184610710565b92915050565b600080fd5b600073ffffffffffffffffffffffffffffffffffffffff82169050919050565b600061076a8261073f565b9050919050565b61077a8161075f565b811461078557600080fd5b50565b60008135905061079781610771565b92915050565b6107a681610706565b81146107b157600080fd5b50565b6000813590506107c38161079d565b92915050565b600080604083850312156107e0576107df61073a565b5b60006107ee85828601610788565b92505060206107ff858286016107b4565b9150509250929050565b60006020828403121561081f5761081e61073a565b5b600061082d848285016107b4565b91505092915050565b600081519050919050565b600082825260208201905092915050565b60005b83811015610870578082015181840152602081019050610855565b60008484015250505050565b6000601f19601f8301169050919050565b600061089882610836565b6108a28185610841565b93506108b2818560208601610852565b6108bb8161087c565b840191505092915050565b600060208201905081810360008301526108e0818461088d565b905092915050565b7f4e6f7420656e6f75676820657468657220666f72206c697374696e6720666565600082015250565b600061091e602083610841565b9150610929826108e8565b602082019050919050565b6000602082019050818103600083015261094d81610911565b9050919050565b7f54696d6520686173206578706972656400000000000000000000000000000000600082015250565b600061098a601083610841565b915061099582610954565b602082019050919050565b600060208201905081810360008301526109b98161097d565b9050919050565b6109c98161075f565b82525050565b60006060820190506109e460008301866109c0565b6109f160208301856109c0565b6109fe6040830184610710565b949350505050565b6000819050919050565b6000819050919050565b6000610a35610a30610a2b84610a06565b610a10565b610706565b9050919050565b610a4581610a1a565b82525050565b600060a082019050610a6060008301886109c0565b610a6d6020830187610710565b610a7a60408301866109c0565b610a8760608301856109c0565b610a946080830184610a3c565b9695505050505050565b7f4e487b7100000000000000000000000000000000000000000000000000000000600052601160045260246000fd5b6000610ad882610706565b91507fffffffffffffffffffffffffffffffffffffffffffffffffffffffffffffffff8203610b0a57610b09610a9e565b5b600182019050919050565b7f4e487b7100000000000000000000000000000000000000000000000000000000600052602260045260246000fd5b60006002820490506001821680610b5c57607f821691505b602082108103610b6f57610b6e610b15565b5b50919050565b6000610b8082610706565b9150610b8b83610706565b9250828203905081811115610ba357610ba2610a9e565b5b92915050565b7f5265656e7472616e637947756172643a207265656e7472616e742063616c6c00600082015250565b6000610bdf601f83610841565b9150610bea82610ba9565b602082019050919050565b60006020820190508181036000830152610c0e81610bd2565b905091905056fea264697066735822122045cd7d06f3252cff0ca5547c7cfd8ccc645204991b2fe54d9c86d37baf45dd1564736f6c63430008110033",
  "immutableReferences": {},
  "source": "// SPDX-License-Identifier: MIT\r\npragma solidity ^0.8.13;\r\n\r\nimport \"@openzeppelin/contracts/utils/Counters.sol\";\r\nimport \"@openzeppelin/contracts/token/ERC721/ERC721.sol\";\r\nimport \"@openzeppelin/contracts/security/ReentrancyGuard.sol\";\r\n\r\ncontract Marketplace is ReentrancyGuard {\r\n    using Counters for Counters.Counter;\r\n    Counters.Counter private _nftsSold;\r\n    Counters.Counter private _nftCount;\r\n    uint256 public LISTING_FEE = 0.0001 ether;\r\n    address payable private _marketOwner;\r\n    mapping(uint256 => NFT) private _idToNFT;\r\n\r\n    string public prompt = \"outerspace cowboy\";\r\n    // public time of 0.001 day\r\n    uint256 public time = 1 days;\r\n    uint256 public currentTime = block.timestamp;\r\n\r\n    struct NFT {\r\n        address nftContract;\r\n        uint256 tokenId;\r\n        address payable seller;\r\n        address payable owner;\r\n        bool listed;\r\n        uint256 voteCount;\r\n    }\r\n    event NFTListed(\r\n        address nftContract,\r\n        uint256 tokenId,\r\n        address seller,\r\n        address owner,\r\n        uint256 voteCount\r\n    );\r\n\r\n    constructor() {\r\n        _marketOwner = payable(msg.sender);\r\n    }\r\n\r\n    function voteNFT(uint256 _tokenId) public payable {\r\n        //  increment vote count for NFT\r\n        _idToNFT[_tokenId].voteCount++;\r\n    }\r\n\r\n    function getVoteCount(uint256 _tokenId) public view returns (uint256) {\r\n        return _idToNFT[_tokenId].voteCount;\r\n    }\r\n\r\n    function getPrompt() public view returns (string memory) {\r\n        return prompt;\r\n    }\r\n\r\n    function getTimeLeft() public view returns (uint256) {\r\n        // do the math to find the time between the current time and the time\r\n        uint256 timeLeft = time - (block.timestamp - currentTime);\r\n        return timeLeft;\r\n    }\r\n\r\n    // List the NFT on the marketplace\r\n    function listNft(address _nftContract, uint256 _tokenId)\r\n        public\r\n        payable\r\n        nonReentrant\r\n    {\r\n        require(msg.value == LISTING_FEE, \"Not enough ether for listing fee\");\r\n        // require that there is time remaining\r\n        require(getTimeLeft() > 0, \"Time has expired\");\r\n\r\n        IERC721(_nftContract).transferFrom(msg.sender, address(this), _tokenId);\r\n\r\n        _nftCount.increment();\r\n\r\n        _idToNFT[_tokenId] = NFT(\r\n            _nftContract,\r\n            _tokenId,\r\n            payable(msg.sender),\r\n            payable(address(this)),\r\n            true,\r\n            0\r\n        );\r\n\r\n        emit NFTListed(_nftContract, _tokenId, msg.sender, address(this), 0);\r\n    }\r\n}\r\n",
  "sourcePath": "C:\\Users\\chris\\doodl\\doodl13\\backend\\contracts\\Marketplace.sol",
  "compiler": {
    "name": "solc",
    "version": "0.8.17+commit.8df45f5f.Emscripten.clang"
  },
  "schemaVersion": "3.4.11",
  "updatedAt": "2022-12-03T02:27:56.925Z",
  "networkType": "ethereum",
  "devdoc": {
    "kind": "dev",
    "methods": {},
    "version": 1
  },
  "userdoc": {
    "kind": "user",
    "methods": {},
    "version": 1
  }
}